:02000000432893
:0E0006008312031321088A00200882000800DC
:1000140083120313220803178D0083168C130C1408
:0800240083120C08F000080033
:10002C00831603178C1C1C2800001628831203133C
:10003C00220803178D000313230803178C00831663
:10004C008C130C150B08F0008B1355308D00AA3057
:10005C008D008C14F01B34288B1335288B170C1146
:02006C0008008A
:10006E0003208A110A128000840AA00A0319A10A29
:08007E00F003031D3728080000
:1000860083160317880189018312031387018316D8
:1000960087018312880183168801FF3085000530A9
:1000A6008312A2000A20700803138800070AF000D2
:1000B600700887008230FC00DD30FD00FD0B6128F2
:1000C600FC0B612800000000051D6E280530A2000B
:1000D6000708A3001620053083120313A2000A2086
:0A00E60070080313880059287728DA
:04400E00D2230007B2
:00000001FF
